{
  "_format": "hh-sol-artifact-1",
  "contractName": "Voting",
  "sourceName": "contracts/Voting.sol",
  "abi": [
    {
      "inputs": [
        {
          "internalType": "string[]",
          "name": "_candidateNames",
          "type": "string[]"
        }
      ],
      "stateMutability": "nonpayable",
      "type": "constructor"
    },
    {
      "inputs": [
        {
          "internalType": "string",
          "name": "_name",
          "type": "string"
        }
      ],
      "name": "addCandidate",
      "outputs": [],
      "stateMutability": "nonpayable",
      "type": "function"
    },
    {
      "inputs": [
        {
          "internalType": "uint256",
          "name": "",
          "type": "uint256"
        }
      ],
      "name": "candidates",
      "outputs": [
        {
          "internalType": "uint256",
          "name": "id",
          "type": "uint256"
        },
        {
          "internalType": "string",
          "name": "name",
          "type": "string"
        },
        {
          "internalType": "uint256",
          "name": "voteCount",
          "type": "uint256"
        }
      ],
      "stateMutability": "view",
      "type": "function"
    },
    {
      "inputs": [],
      "name": "candidatesCount",
      "outputs": [
        {
          "internalType": "uint256",
          "name": "",
          "type": "uint256"
        }
      ],
      "stateMutability": "view",
      "type": "function"
    },
    {
      "inputs": [
        {
          "internalType": "address",
          "name": "",
          "type": "address"
        }
      ],
      "name": "hasVoted",
      "outputs": [
        {
          "internalType": "bool",
          "name": "",
          "type": "bool"
        }
      ],
      "stateMutability": "view",
      "type": "function"
    },
    {
      "inputs": [
        {
          "internalType": "uint256",
          "name": "_candidateId",
          "type": "uint256"
        }
      ],
      "name": "vote",
      "outputs": [],
      "stateMutability": "nonpayable",
      "type": "function"
    }
  ],
  "bytecode": "0x608060405234801561001057600080fd5b506040516113b93803806113b98339818101604052810190610032919061033d565b60005b81518110156100db57600080815480929190610050906103bf565b91905055506040518060600160405280600054815260200183838151811061007b5761007a610407565b5b60200260200101518152602001600081525060016000805481526020019081526020016000206000820151816000015560208201518160010190816100c0919061064d565b50604082015181600201559050508080600101915050610035565b505061071f565b6000604051905090565b600080fd5b600080fd5b600080fd5b6000601f19601f8301169050919050565b7f4e487b7100000000000000000000000000000000000000000000000000000000600052604160045260246000fd5b610144826100fb565b810181811067ffffffffffffffff821117156101635761016261010c565b5b80604052505050565b60006101766100e2565b9050610182828261013b565b919050565b600067ffffffffffffffff8211156101a2576101a161010c565b5b602082029050602081019050919050565b600080fd5b600080fd5b600067ffffffffffffffff8211156101d8576101d761010c565b5b6101e1826100fb565b9050602081019050919050565b60005b8381101561020c5780820151818401526020810190506101f1565b60008484015250505050565b600061022b610226846101bd565b61016c565b905082815260208101848484011115610247576102466101b8565b5b6102528482856101ee565b509392505050565b600082601f83011261026f5761026e6100f6565b5b815161027f848260208601610218565b91505092915050565b600061029b61029684610187565b61016c565b905080838252602082019050602084028301858111156102be576102bd6101b3565b5b835b8181101561030557805167ffffffffffffffff8111156102e3576102e26100f6565b5b8086016102f0898261025a565b855260208501945050506020810190506102c0565b5050509392505050565b600082601f830112610324576103236100f6565b5b8151610334848260208601610288565b91505092915050565b600060208284031215610353576103526100ec565b5b600082015167ffffffffffffffff811115610371576103706100f1565b5b61037d8482850161030f565b91505092915050565b7f4e487b7100000000000000000000000000000000000000000000000000000000600052601160045260246000fd5b6000819050919050565b60006103ca826103b5565b91507fffffffffffffffffffffffffffffffffffffffffffffffffffffffffffffffff82036103fc576103fb610386565b5b600182019050919050565b7f4e487b7100000000000000000000000000000000000000000000000000000000600052603260045260246000fd5b600081519050919050565b7f4e487b7100000000000000000000000000000000000000000000000000000000600052602260045260246000fd5b6000600282049050600182168061048857607f821691505b60208210810361049b5761049a610441565b5b50919050565b60008190508160005260206000209050919050565b60006020601f8301049050919050565b600082821b905092915050565b6000600883026105037fffffffffffffffffffffffffffffffffffffffffffffffffffffffffffffffff826104c6565b61050d86836104c6565b95508019841693508086168417925050509392505050565b6000819050919050565b600061054a610545610540846103b5565b610525565b6103b5565b9050919050565b6000819050919050565b6105648361052f565b61057861057082610551565b8484546104d3565b825550505050565b600090565b61058d610580565b61059881848461055b565b505050565b5b818110156105bc576105b1600082610585565b60018101905061059e565b5050565b601f821115610601576105d2816104a1565b6105db846104b6565b810160208510156105ea578190505b6105fe6105f6856104b6565b83018261059d565b50505b505050565b600082821c905092915050565b600061062460001984600802610606565b1980831691505092915050565b600061063d8383610613565b9150826002028217905092915050565b61065682610436565b67ffffffffffffffff81111561066f5761066e61010c565b5b6106798254610470565b6106848282856105c0565b600060209050601f8311600181146106b757600084156106a5578287015190505b6106af8582610631565b865550610717565b601f1984166106c5866104a1565b60005b828110156106ed578489015182556001820191506020850194506020810190506106c8565b8683101561070a5784890151610706601f891682610613565b8355505b6001600288020188555050505b505050505050565b610c8b8061072e6000396000f3fe608060405234801561001057600080fd5b50600436106100575760003560e01c80630121b93f1461005c57806309eef43e146100785780632d35a8a2146100a85780633477ee2e146100c6578063462e91ec146100f8575b600080fd5b61007660048036038101906100719190610458565b610114565b005b610092600480360381019061008d91906104e3565b610279565b60405161009f919061052b565b60405180910390f35b6100b0610299565b6040516100bd9190610555565b60405180910390f35b6100e060048036038101906100db9190610458565b61029f565b6040516100ef93929190610600565b60405180910390f35b610112600480360381019061010d9190610773565b610351565b005b600260003373ffffffffffffffffffffffffffffffffffffffff1673ffffffffffffffffffffffffffffffffffffffff16815260200190815260200160002060009054906101000a900460ff16156101a1576040517f08c379a000000000000000000000000000000000000000000000000000000000815260040161019890610808565b60405180910390fd5b6000811180156101b357506000548111155b6101f2576040517f08c379a00000000000000000000000000000000000000000000000000000000081526004016101e990610874565b60405180910390fd5b600160008281526020019081526020016000206002016000815480929190610219906108c3565b91905055506001600260003373ffffffffffffffffffffffffffffffffffffffff1673ffffffffffffffffffffffffffffffffffffffff16815260200190815260200160002060006101000a81548160ff02191690831515021790555050565b60026020528060005260406000206000915054906101000a900460ff1681565b60005481565b60016020528060005260406000206000915090508060000154908060010180546102c89061093a565b80601f01602080910402602001604051908101604052809291908181526020018280546102f49061093a565b80156103415780601f1061031657610100808354040283529160200191610341565b820191906000526020600020905b81548152906001019060200180831161032457829003601f168201915b5050505050908060020154905083565b6000815111610395576040517f08c379a000000000000000000000000000000000000000000000000000000000815260040161038c906109b7565b60405180910390fd5b6000808154809291906103a7906108c3565b919050555060405180606001604052806000548152602001828152602001600081525060016000805481526020019081526020016000206000820151816000015560208201518160010190816103fd9190610b83565b506040820151816002015590505050565b6000604051905090565b600080fd5b600080fd5b6000819050919050565b61043581610422565b811461044057600080fd5b50565b6000813590506104528161042c565b92915050565b60006020828403121561046e5761046d610418565b5b600061047c84828501610443565b91505092915050565b600073ffffffffffffffffffffffffffffffffffffffff82169050919050565b60006104b082610485565b9050919050565b6104c0816104a5565b81146104cb57600080fd5b50565b6000813590506104dd816104b7565b92915050565b6000602082840312156104f9576104f8610418565b5b6000610507848285016104ce565b91505092915050565b60008115159050919050565b61052581610510565b82525050565b6000602082019050610540600083018461051c565b92915050565b61054f81610422565b82525050565b600060208201905061056a6000830184610546565b92915050565b600081519050919050565b600082825260208201905092915050565b60005b838110156105aa57808201518184015260208101905061058f565b60008484015250505050565b6000601f19601f8301169050919050565b60006105d282610570565b6105dc818561057b565b93506105ec81856020860161058c565b6105f5816105b6565b840191505092915050565b60006060820190506106156000830186610546565b818103602083015261062781856105c7565b90506106366040830184610546565b949350505050565b600080fd5b600080fd5b7f4e487b7100000000000000000000000000000000000000000000000000000000600052604160045260246000fd5b610680826105b6565b810181811067ffffffffffffffff8211171561069f5761069e610648565b5b80604052505050565b60006106b261040e565b90506106be8282610677565b919050565b600067ffffffffffffffff8211156106de576106dd610648565b5b6106e7826105b6565b9050602081019050919050565b82818337600083830152505050565b6000610716610711846106c3565b6106a8565b90508281526020810184848401111561073257610731610643565b5b61073d8482856106f4565b509392505050565b600082601f83011261075a5761075961063e565b5b813561076a848260208601610703565b91505092915050565b60006020828403121561078957610788610418565b5b600082013567ffffffffffffffff8111156107a7576107a661041d565b5b6107b384828501610745565b91505092915050565b7f596f75206861766520616c726561647920766f74656421000000000000000000600082015250565b60006107f260178361057b565b91506107fd826107bc565b602082019050919050565b60006020820190508181036000830152610821816107e5565b9050919050565b7f496e76616c69642063616e646964617465000000000000000000000000000000600082015250565b600061085e60118361057b565b915061086982610828565b602082019050919050565b6000602082019050818103600083015261088d81610851565b9050919050565b7f4e487b7100000000000000000000000000000000000000000000000000000000600052601160045260246000fd5b60006108ce82610422565b91507fffffffffffffffffffffffffffffffffffffffffffffffffffffffffffffffff8203610900576108ff610894565b5b600182019050919050565b7f4e487b7100000000000000000000000000000000000000000000000000000000600052602260045260246000fd5b6000600282049050600182168061095257607f821691505b6020821081036109655761096461090b565b5b50919050565b7f456d707479206e616d6521000000000000000000000000000000000000000000600082015250565b60006109a1600b8361057b565b91506109ac8261096b565b602082019050919050565b600060208201905081810360008301526109d081610994565b9050919050565b60008190508160005260206000209050919050565b60006020601f8301049050919050565b600082821b905092915050565b600060088302610a397fffffffffffffffffffffffffffffffffffffffffffffffffffffffffffffffff826109fc565b610a4386836109fc565b95508019841693508086168417925050509392505050565b6000819050919050565b6000610a80610a7b610a7684610422565b610a5b565b610422565b9050919050565b6000819050919050565b610a9a83610a65565b610aae610aa682610a87565b848454610a09565b825550505050565b600090565b610ac3610ab6565b610ace818484610a91565b505050565b5b81811015610af257610ae7600082610abb565b600181019050610ad4565b5050565b601f821115610b3757610b08816109d7565b610b11846109ec565b81016020851015610b20578190505b610b34610b2c856109ec565b830182610ad3565b50505b505050565b600082821c905092915050565b6000610b5a60001984600802610b3c565b1980831691505092915050565b6000610b738383610b49565b9150826002028217905092915050565b610b8c82610570565b67ffffffffffffffff811115610ba557610ba4610648565b5b610baf825461093a565b610bba828285610af6565b600060209050601f831160018114610bed5760008415610bdb578287015190505b610be58582610b67565b865550610c4d565b601f198416610bfb866109d7565b60005b82811015610c2357848901518255600182019150602085019450602081019050610bfe565b86831015610c405784890151610c3c601f891682610b49565b8355505b6001600288020188555050505b50505050505056fea264697066735822122050234e3c6d6c14fba25984d3d6b1bfc3ecf41ad9a7b158f49b1701a297db00d164736f6c634300081c0033",
  "linkReferences": {},
  "deployedLinkReferences": {}
}