{
  "_format": "hh-sol-artifact-1",
  "contractName": "Voting",
  "sourceName": "contracts/Voting.sol",
  "abi": [
    {
      "inputs": [
        {
          "internalType": "string[]",
          "name": "_candidateNames",
          "type": "string[]"
        }
      ],
      "stateMutability": "nonpayable",
      "type": "constructor"
    },
    {
      "inputs": [
        {
          "internalType": "string",
          "name": "_name",
          "type": "string"
        }
      ],
      "name": "addCandidate",
      "outputs": [],
      "stateMutability": "nonpayable",
      "type": "function"
    },
    {
      "inputs": [],
      "name": "admin",
      "outputs": [
        {
          "internalType": "address",
          "name": "",
          "type": "address"
        }
      ],
      "stateMutability": "view",
      "type": "function"
    },
    {
      "inputs": [
        {
          "internalType": "uint256",
          "name": "",
          "type": "uint256"
        }
      ],
      "name": "candidates",
      "outputs": [
        {
          "internalType": "uint256",
          "name": "id",
          "type": "uint256"
        },
        {
          "internalType": "string",
          "name": "name",
          "type": "string"
        },
        {
          "internalType": "uint256",
          "name": "voteCount",
          "type": "uint256"
        }
      ],
      "stateMutability": "view",
      "type": "function"
    },
    {
      "inputs": [],
      "name": "candidatesCount",
      "outputs": [
        {
          "internalType": "uint256",
          "name": "",
          "type": "uint256"
        }
      ],
      "stateMutability": "view",
      "type": "function"
    },
    {
      "inputs": [
        {
          "internalType": "address",
          "name": "",
          "type": "address"
        }
      ],
      "name": "hasVoted",
      "outputs": [
        {
          "internalType": "bool",
          "name": "",
          "type": "bool"
        }
      ],
      "stateMutability": "view",
      "type": "function"
    },
    {
      "inputs": [
        {
          "internalType": "uint256",
          "name": "_candidateId",
          "type": "uint256"
        }
      ],
      "name": "vote",
      "outputs": [],
      "stateMutability": "nonpayable",
      "type": "function"
    }
  ],
  "bytecode": "0x60806040523480156200001157600080fd5b506040516200158c3803806200158c8339818101604052810190620000379190620003ca565b336000806101000a81548173ffffffffffffffffffffffffffffffffffffffff021916908373ffffffffffffffffffffffffffffffffffffffff16021790555060005b8151811015620001335760016000815480929190620000999062000454565b919050555060405180606001604052806001548152602001838381518110620000c757620000c6620004a1565b5b6020026020010151815260200160008152506002600060015481526020019081526020016000206000820151816000015560208201518160010190816200010f919062000711565b506040820151816002015590505080806200012a9062000454565b9150506200007a565b5050620007f8565b6000604051905090565b600080fd5b600080fd5b600080fd5b6000601f19601f8301169050919050565b7f4e487b7100000000000000000000000000000000000000000000000000000000600052604160045260246000fd5b6200019f8262000154565b810181811067ffffffffffffffff82111715620001c157620001c062000165565b5b80604052505050565b6000620001d66200013b565b9050620001e4828262000194565b919050565b600067ffffffffffffffff82111562000207576200020662000165565b5b602082029050602081019050919050565b600080fd5b600080fd5b600067ffffffffffffffff82111562000240576200023f62000165565b5b6200024b8262000154565b9050602081019050919050565b60005b83811015620002785780820151818401526020810190506200025b565b60008484015250505050565b60006200029b620002958462000222565b620001ca565b905082815260208101848484011115620002ba57620002b96200021d565b5b620002c784828562000258565b509392505050565b600082601f830112620002e757620002e66200014f565b5b8151620002f984826020860162000284565b91505092915050565b6000620003196200031384620001e9565b620001ca565b905080838252602082019050602084028301858111156200033f576200033e62000218565b5b835b818110156200038d57805167ffffffffffffffff8111156200036857620003676200014f565b5b808601620003778982620002cf565b8552602085019450505060208101905062000341565b5050509392505050565b600082601f830112620003af57620003ae6200014f565b5b8151620003c184826020860162000302565b91505092915050565b600060208284031215620003e357620003e262000145565b5b600082015167ffffffffffffffff8111156200040457620004036200014a565b5b620004128482850162000397565b91505092915050565b7f4e487b7100000000000000000000000000000000000000000000000000000000600052601160045260246000fd5b6000819050919050565b600062000461826200044a565b91507fffffffffffffffffffffffffffffffffffffffffffffffffffffffffffffffff82036200049657620004956200041b565b5b600182019050919050565b7f4e487b7100000000000000000000000000000000000000000000000000000000600052603260045260246000fd5b600081519050919050565b7f4e487b7100000000000000000000000000000000000000000000000000000000600052602260045260246000fd5b600060028204905060018216806200052357607f821691505b602082108103620005395762000538620004db565b5b50919050565b60008190508160005260206000209050919050565b60006020601f8301049050919050565b600082821b905092915050565b600060088302620005a37fffffffffffffffffffffffffffffffffffffffffffffffffffffffffffffffff8262000564565b620005af868362000564565b95508019841693508086168417925050509392505050565b6000819050919050565b6000620005f2620005ec620005e6846200044a565b620005c7565b6200044a565b9050919050565b6000819050919050565b6200060e83620005d1565b620006266200061d82620005f9565b84845462000571565b825550505050565b600090565b6200063d6200062e565b6200064a81848462000603565b505050565b5b8181101562000672576200066660008262000633565b60018101905062000650565b5050565b601f821115620006c1576200068b816200053f565b620006968462000554565b81016020851015620006a6578190505b620006be620006b58562000554565b8301826200064f565b50505b505050565b600082821c905092915050565b6000620006e660001984600802620006c6565b1980831691505092915050565b6000620007018383620006d3565b9150826002028217905092915050565b6200071c82620004d0565b67ffffffffffffffff81111562000738576200073762000165565b5b6200074482546200050a565b6200075182828562000676565b600060209050601f83116001811462000789576000841562000774578287015190505b620007808582620006f3565b865550620007f0565b601f19841662000799866200053f565b60005b82811015620007c3578489015182556001820191506020850194506020810190506200079c565b86831015620007e35784890151620007df601f891682620006d3565b8355505b6001600288020188555050505b505050505050565b610d8480620008086000396000f3fe608060405234801561001057600080fd5b50600436106100625760003560e01c80630121b93f1461006757806309eef43e146100835780632d35a8a2146100b35780633477ee2e146100d1578063462e91ec14610103578063f851a4401461011f575b600080fd5b610081600480360381019061007c91906104f3565b61013d565b005b61009d6004803603810190610098919061057e565b6102a4565b6040516100aa91906105c6565b60405180910390f35b6100bb6102c4565b6040516100c891906105f0565b60405180910390f35b6100eb60048036038101906100e691906104f3565b6102ca565b6040516100fa9392919061069b565b60405180910390f35b61011d6004803603810190610118919061080e565b61037c565b005b610127610485565b6040516101349190610866565b60405180910390f35b600360003373ffffffffffffffffffffffffffffffffffffffff1673ffffffffffffffffffffffffffffffffffffffff16815260200190815260200160002060009054906101000a900460ff16156101ca576040517f08c379a00000000000000000000000000000000000000000000000000000000081526004016101c1906108cd565b60405180910390fd5b6000811180156101dc57506001548111155b61021b576040517f08c379a000000000000000000000000000000000000000000000000000000000815260040161021290610939565b60405180910390fd5b6001600360003373ffffffffffffffffffffffffffffffffffffffff1673ffffffffffffffffffffffffffffffffffffffff16815260200190815260200160002060006101000a81548160ff021916908315150217905550600160026000838152602001908152602001600020600201600082825461029a9190610988565b9250508190555050565b60036020528060005260406000206000915054906101000a900460ff1681565b60015481565b60026020528060005260406000206000915090508060000154908060010180546102f3906109eb565b80601f016020809104026020016040519081016040528092919081815260200182805461031f906109eb565b801561036c5780601f106103415761010080835404028352916020019161036c565b820191906000526020600020905b81548152906001019060200180831161034f57829003601f168201915b5050505050908060020154905083565b60008054906101000a900473ffffffffffffffffffffffffffffffffffffffff1673ffffffffffffffffffffffffffffffffffffffff163373ffffffffffffffffffffffffffffffffffffffff161461040a576040517f08c379a000000000000000000000000000000000000000000000000000000000815260040161040190610a68565b60405180910390fd5b6001600081548092919061041d90610a88565b91905055506040518060600160405280600154815260200182815260200160008152506002600060015481526020019081526020016000206000820151816000015560208201518160010190816104749190610c7c565b506040820151816002015590505050565b60008054906101000a900473ffffffffffffffffffffffffffffffffffffffff1681565b6000604051905090565b600080fd5b600080fd5b6000819050919050565b6104d0816104bd565b81146104db57600080fd5b50565b6000813590506104ed816104c7565b92915050565b600060208284031215610509576105086104b3565b5b6000610517848285016104de565b91505092915050565b600073ffffffffffffffffffffffffffffffffffffffff82169050919050565b600061054b82610520565b9050919050565b61055b81610540565b811461056657600080fd5b50565b60008135905061057881610552565b92915050565b600060208284031215610594576105936104b3565b5b60006105a284828501610569565b91505092915050565b60008115159050919050565b6105c0816105ab565b82525050565b60006020820190506105db60008301846105b7565b92915050565b6105ea816104bd565b82525050565b600060208201905061060560008301846105e1565b92915050565b600081519050919050565b600082825260208201905092915050565b60005b8381101561064557808201518184015260208101905061062a565b60008484015250505050565b6000601f19601f8301169050919050565b600061066d8261060b565b6106778185610616565b9350610687818560208601610627565b61069081610651565b840191505092915050565b60006060820190506106b060008301866105e1565b81810360208301526106c28185610662565b90506106d160408301846105e1565b949350505050565b600080fd5b600080fd5b7f4e487b7100000000000000000000000000000000000000000000000000000000600052604160045260246000fd5b61071b82610651565b810181811067ffffffffffffffff8211171561073a576107396106e3565b5b80604052505050565b600061074d6104a9565b90506107598282610712565b919050565b600067ffffffffffffffff821115610779576107786106e3565b5b61078282610651565b9050602081019050919050565b82818337600083830152505050565b60006107b16107ac8461075e565b610743565b9050828152602081018484840111156107cd576107cc6106de565b5b6107d884828561078f565b509392505050565b600082601f8301126107f5576107f46106d9565b5b813561080584826020860161079e565b91505092915050565b600060208284031215610824576108236104b3565b5b600082013567ffffffffffffffff811115610842576108416104b8565b5b61084e848285016107e0565b91505092915050565b61086081610540565b82525050565b600060208201905061087b6000830184610857565b92915050565b7f416c726561647920766f74656400000000000000000000000000000000000000600082015250565b60006108b7600d83610616565b91506108c282610881565b602082019050919050565b600060208201905081810360008301526108e6816108aa565b9050919050565b7f496e76616c69642063616e646964617465000000000000000000000000000000600082015250565b6000610923601183610616565b915061092e826108ed565b602082019050919050565b6000602082019050818103600083015261095281610916565b9050919050565b7f4e487b7100000000000000000000000000000000000000000000000000000000600052601160045260246000fd5b6000610993826104bd565b915061099e836104bd565b92508282019050808211156109b6576109b5610959565b5b92915050565b7f4e487b7100000000000000000000000000000000000000000000000000000000600052602260045260246000fd5b60006002820490506001821680610a0357607f821691505b602082108103610a1657610a156109bc565b5b50919050565b7f4f6e6c792061646d696e00000000000000000000000000000000000000000000600082015250565b6000610a52600a83610616565b9150610a5d82610a1c565b602082019050919050565b60006020820190508181036000830152610a8181610a45565b9050919050565b6000610a93826104bd565b91507fffffffffffffffffffffffffffffffffffffffffffffffffffffffffffffffff8203610ac557610ac4610959565b5b600182019050919050565b60008190508160005260206000209050919050565b60006020601f8301049050919050565b600082821b905092915050565b600060088302610b327fffffffffffffffffffffffffffffffffffffffffffffffffffffffffffffffff82610af5565b610b3c8683610af5565b95508019841693508086168417925050509392505050565b6000819050919050565b6000610b79610b74610b6f846104bd565b610b54565b6104bd565b9050919050565b6000819050919050565b610b9383610b5e565b610ba7610b9f82610b80565b848454610b02565b825550505050565b600090565b610bbc610baf565b610bc7818484610b8a565b505050565b5b81811015610beb57610be0600082610bb4565b600181019050610bcd565b5050565b601f821115610c3057610c0181610ad0565b610c0a84610ae5565b81016020851015610c19578190505b610c2d610c2585610ae5565b830182610bcc565b50505b505050565b600082821c905092915050565b6000610c5360001984600802610c35565b1980831691505092915050565b6000610c6c8383610c42565b9150826002028217905092915050565b610c858261060b565b67ffffffffffffffff811115610c9e57610c9d6106e3565b5b610ca882546109eb565b610cb3828285610bef565b600060209050601f831160018114610ce65760008415610cd4578287015190505b610cde8582610c60565b865550610d46565b601f198416610cf486610ad0565b60005b82811015610d1c57848901518255600182019150602085019450602081019050610cf7565b86831015610d395784890151610d35601f891682610c42565b8355505b6001600288020188555050505b50505050505056fea2646970667358221220616cfedc859c9cba56767ec9669b9606459bee48d21d70b89c1f544d1c98f46764736f6c63430008150033",
  "linkReferences": {},
  "deployedLinkReferences": {}
}