{
  "_format": "hh-sol-artifact-1",
  "contractName": "Voting",
  "sourceName": "contracts/Voting.sol",
  "abi": [
    {
      "inputs": [
        {
          "internalType": "string[]",
          "name": "_candidateNames",
          "type": "string[]"
        }
      ],
      "stateMutability": "nonpayable",
      "type": "constructor"
    },
    {
      "inputs": [
        {
          "internalType": "string",
          "name": "_name",
          "type": "string"
        }
      ],
      "name": "addCandidate",
      "outputs": [],
      "stateMutability": "nonpayable",
      "type": "function"
    },
    {
      "inputs": [],
      "name": "admin",
      "outputs": [
        {
          "internalType": "address",
          "name": "",
          "type": "address"
        }
      ],
      "stateMutability": "view",
      "type": "function"
    },
    {
      "inputs": [
        {
          "internalType": "uint256",
          "name": "",
          "type": "uint256"
        }
      ],
      "name": "candidates",
      "outputs": [
        {
          "internalType": "uint256",
          "name": "id",
          "type": "uint256"
        },
        {
          "internalType": "string",
          "name": "name",
          "type": "string"
        },
        {
          "internalType": "uint256",
          "name": "voteCount",
          "type": "uint256"
        }
      ],
      "stateMutability": "view",
      "type": "function"
    },
    {
      "inputs": [],
      "name": "candidatesCount",
      "outputs": [
        {
          "internalType": "uint256",
          "name": "",
          "type": "uint256"
        }
      ],
      "stateMutability": "view",
      "type": "function"
    },
    {
      "inputs": [
        {
          "internalType": "address",
          "name": "",
          "type": "address"
        }
      ],
      "name": "hasVoted",
      "outputs": [
        {
          "internalType": "bool",
          "name": "",
          "type": "bool"
        }
      ],
      "stateMutability": "view",
      "type": "function"
    },
    {
      "inputs": [
        {
          "internalType": "uint256",
          "name": "_candidateId",
          "type": "uint256"
        }
      ],
      "name": "vote",
      "outputs": [],
      "stateMutability": "nonpayable",
      "type": "function"
    }
  ],
  "bytecode": "0x60806040523480156200001157600080fd5b5060405162001607380380620016078339818101604052810190620000379190620003c9565b33600360006101000a81548173ffffffffffffffffffffffffffffffffffffffff021916908373ffffffffffffffffffffffffffffffffffffffff16021790555060005b81518110156200013257600080815480929190620000999062000453565b919050555060405180606001604052806000548152602001838381518110620000c757620000c6620004a0565b5b60200260200101518152602001600081525060016000805481526020019081526020016000206000820151816000015560208201518160010190816200010e919062000710565b50604082015181600201559050508080620001299062000453565b9150506200007b565b5050620007f7565b6000604051905090565b600080fd5b600080fd5b600080fd5b6000601f19601f8301169050919050565b7f4e487b7100000000000000000000000000000000000000000000000000000000600052604160045260246000fd5b6200019e8262000153565b810181811067ffffffffffffffff82111715620001c057620001bf62000164565b5b80604052505050565b6000620001d56200013a565b9050620001e3828262000193565b919050565b600067ffffffffffffffff82111562000206576200020562000164565b5b602082029050602081019050919050565b600080fd5b600080fd5b600067ffffffffffffffff8211156200023f576200023e62000164565b5b6200024a8262000153565b9050602081019050919050565b60005b83811015620002775780820151818401526020810190506200025a565b60008484015250505050565b60006200029a620002948462000221565b620001c9565b905082815260208101848484011115620002b957620002b86200021c565b5b620002c684828562000257565b509392505050565b600082601f830112620002e657620002e56200014e565b5b8151620002f884826020860162000283565b91505092915050565b6000620003186200031284620001e8565b620001c9565b905080838252602082019050602084028301858111156200033e576200033d62000217565b5b835b818110156200038c57805167ffffffffffffffff8111156200036757620003666200014e565b5b808601620003768982620002ce565b8552602085019450505060208101905062000340565b5050509392505050565b600082601f830112620003ae57620003ad6200014e565b5b8151620003c084826020860162000301565b91505092915050565b600060208284031215620003e257620003e162000144565b5b600082015167ffffffffffffffff81111562000403576200040262000149565b5b620004118482850162000396565b91505092915050565b7f4e487b7100000000000000000000000000000000000000000000000000000000600052601160045260246000fd5b6000819050919050565b6000620004608262000449565b91507fffffffffffffffffffffffffffffffffffffffffffffffffffffffffffffffff82036200049557620004946200041a565b5b600182019050919050565b7f4e487b7100000000000000000000000000000000000000000000000000000000600052603260045260246000fd5b600081519050919050565b7f4e487b7100000000000000000000000000000000000000000000000000000000600052602260045260246000fd5b600060028204905060018216806200052257607f821691505b602082108103620005385762000537620004da565b5b50919050565b60008190508160005260206000209050919050565b60006020601f8301049050919050565b600082821b905092915050565b600060088302620005a27fffffffffffffffffffffffffffffffffffffffffffffffffffffffffffffffff8262000563565b620005ae868362000563565b95508019841693508086168417925050509392505050565b6000819050919050565b6000620005f1620005eb620005e58462000449565b620005c6565b62000449565b9050919050565b6000819050919050565b6200060d83620005d0565b620006256200061c82620005f8565b84845462000570565b825550505050565b600090565b6200063c6200062d565b6200064981848462000602565b505050565b5b8181101562000671576200066560008262000632565b6001810190506200064f565b5050565b601f821115620006c0576200068a816200053e565b620006958462000553565b81016020851015620006a5578190505b620006bd620006b48562000553565b8301826200064e565b50505b505050565b600082821c905092915050565b6000620006e560001984600802620006c5565b1980831691505092915050565b6000620007008383620006d2565b9150826002028217905092915050565b6200071b82620004cf565b67ffffffffffffffff81111562000737576200073662000164565b5b62000743825462000509565b6200075082828562000675565b600060209050601f83116001811462000788576000841562000773578287015190505b6200077f8582620006f2565b865550620007ef565b601f19841662000798866200053e565b60005b82811015620007c2578489015182556001820191506020850194506020810190506200079b565b86831015620007e25784890151620007de601f891682620006d2565b8355505b6001600288020188555050505b505050505050565b610e0080620008076000396000f3fe608060405234801561001057600080fd5b50600436106100625760003560e01c80630121b93f1461006757806309eef43e146100835780632d35a8a2146100b35780633477ee2e146100d1578063462e91ec14610103578063f851a4401461011f575b600080fd5b610081600480360381019061007c9190610537565b61013d565b005b61009d600480360381019061009891906105c2565b6102a2565b6040516100aa919061060a565b60405180910390f35b6100bb6102c2565b6040516100c89190610634565b60405180910390f35b6100eb60048036038101906100e69190610537565b6102c8565b6040516100fa939291906106df565b60405180910390f35b61011d60048036038101906101189190610852565b61037a565b005b6101276104c7565b60405161013491906108aa565b60405180910390f35b600260003373ffffffffffffffffffffffffffffffffffffffff1673ffffffffffffffffffffffffffffffffffffffff16815260200190815260200160002060009054906101000a900460ff16156101ca576040517f08c379a00000000000000000000000000000000000000000000000000000000081526004016101c190610911565b60405180910390fd5b6000811180156101dc57506000548111155b61021b576040517f08c379a00000000000000000000000000000000000000000000000000000000081526004016102129061097d565b60405180910390fd5b600160008281526020019081526020016000206002016000815480929190610242906109cc565b91905055506001600260003373ffffffffffffffffffffffffffffffffffffffff1673ffffffffffffffffffffffffffffffffffffffff16815260200190815260200160002060006101000a81548160ff02191690831515021790555050565b60026020528060005260406000206000915054906101000a900460ff1681565b60005481565b60016020528060005260406000206000915090508060000154908060010180546102f190610a43565b80601f016020809104026020016040519081016040528092919081815260200182805461031d90610a43565b801561036a5780601f1061033f5761010080835404028352916020019161036a565b820191906000526020600020905b81548152906001019060200180831161034d57829003601f168201915b5050505050908060020154905083565b600360009054906101000a900473ffffffffffffffffffffffffffffffffffffffff1673ffffffffffffffffffffffffffffffffffffffff163373ffffffffffffffffffffffffffffffffffffffff161461040a576040517f08c379a000000000000000000000000000000000000000000000000000000000815260040161040190610ac0565b60405180910390fd5b600081511161044e576040517f08c379a000000000000000000000000000000000000000000000000000000000815260040161044590610b2c565b60405180910390fd5b600080815480929190610460906109cc565b919050555060405180606001604052806000548152602001828152602001600081525060016000805481526020019081526020016000206000820151816000015560208201518160010190816104b69190610cf8565b506040820151816002015590505050565b600360009054906101000a900473ffffffffffffffffffffffffffffffffffffffff1681565b6000604051905090565b600080fd5b600080fd5b6000819050919050565b61051481610501565b811461051f57600080fd5b50565b6000813590506105318161050b565b92915050565b60006020828403121561054d5761054c6104f7565b5b600061055b84828501610522565b91505092915050565b600073ffffffffffffffffffffffffffffffffffffffff82169050919050565b600061058f82610564565b9050919050565b61059f81610584565b81146105aa57600080fd5b50565b6000813590506105bc81610596565b92915050565b6000602082840312156105d8576105d76104f7565b5b60006105e6848285016105ad565b91505092915050565b60008115159050919050565b610604816105ef565b82525050565b600060208201905061061f60008301846105fb565b92915050565b61062e81610501565b82525050565b60006020820190506106496000830184610625565b92915050565b600081519050919050565b600082825260208201905092915050565b60005b8381101561068957808201518184015260208101905061066e565b60008484015250505050565b6000601f19601f8301169050919050565b60006106b18261064f565b6106bb818561065a565b93506106cb81856020860161066b565b6106d481610695565b840191505092915050565b60006060820190506106f46000830186610625565b818103602083015261070681856106a6565b90506107156040830184610625565b949350505050565b600080fd5b600080fd5b7f4e487b7100000000000000000000000000000000000000000000000000000000600052604160045260246000fd5b61075f82610695565b810181811067ffffffffffffffff8211171561077e5761077d610727565b5b80604052505050565b60006107916104ed565b905061079d8282610756565b919050565b600067ffffffffffffffff8211156107bd576107bc610727565b5b6107c682610695565b9050602081019050919050565b82818337600083830152505050565b60006107f56107f0846107a2565b610787565b90508281526020810184848401111561081157610810610722565b5b61081c8482856107d3565b509392505050565b600082601f8301126108395761083861071d565b5b81356108498482602086016107e2565b91505092915050565b600060208284031215610868576108676104f7565b5b600082013567ffffffffffffffff811115610886576108856104fc565b5b61089284828501610824565b91505092915050565b6108a481610584565b82525050565b60006020820190506108bf600083018461089b565b92915050565b7f596f7520616c726561647920766f746564000000000000000000000000000000600082015250565b60006108fb60118361065a565b9150610906826108c5565b602082019050919050565b6000602082019050818103600083015261092a816108ee565b9050919050565b7f496e76616c69642063616e646964617465000000000000000000000000000000600082015250565b600061096760118361065a565b915061097282610931565b602082019050919050565b600060208201905081810360008301526109968161095a565b9050919050565b7f4e487b7100000000000000000000000000000000000000000000000000000000600052601160045260246000fd5b60006109d782610501565b91507fffffffffffffffffffffffffffffffffffffffffffffffffffffffffffffffff8203610a0957610a0861099d565b5b600182019050919050565b7f4e487b7100000000000000000000000000000000000000000000000000000000600052602260045260246000fd5b60006002820490506001821680610a5b57607f821691505b602082108103610a6e57610a6d610a14565b5b50919050565b7f4f6e6c792061646d696e2063616e206164642063616e64696461746573000000600082015250565b6000610aaa601d8361065a565b9150610ab582610a74565b602082019050919050565b60006020820190508181036000830152610ad981610a9d565b9050919050565b7f456d707479206e616d6500000000000000000000000000000000000000000000600082015250565b6000610b16600a8361065a565b9150610b2182610ae0565b602082019050919050565b60006020820190508181036000830152610b4581610b09565b9050919050565b60008190508160005260206000209050919050565b60006020601f8301049050919050565b600082821b905092915050565b600060088302610bae7fffffffffffffffffffffffffffffffffffffffffffffffffffffffffffffffff82610b71565b610bb88683610b71565b95508019841693508086168417925050509392505050565b6000819050919050565b6000610bf5610bf0610beb84610501565b610bd0565b610501565b9050919050565b6000819050919050565b610c0f83610bda565b610c23610c1b82610bfc565b848454610b7e565b825550505050565b600090565b610c38610c2b565b610c43818484610c06565b505050565b5b81811015610c6757610c5c600082610c30565b600181019050610c49565b5050565b601f821115610cac57610c7d81610b4c565b610c8684610b61565b81016020851015610c95578190505b610ca9610ca185610b61565b830182610c48565b50505b505050565b600082821c905092915050565b6000610ccf60001984600802610cb1565b1980831691505092915050565b6000610ce88383610cbe565b9150826002028217905092915050565b610d018261064f565b67ffffffffffffffff811115610d1a57610d19610727565b5b610d248254610a43565b610d2f828285610c6b565b600060209050601f831160018114610d625760008415610d50578287015190505b610d5a8582610cdc565b865550610dc2565b601f198416610d7086610b4c565b60005b82811015610d9857848901518255600182019150602085019450602081019050610d73565b86831015610db55784890151610db1601f891682610cbe565b8355505b6001600288020188555050505b50505050505056fea2646970667358221220847a7eae8c287b9d985619ff853e9b91f6cbcec6e89e8a2677f3c270b94872c864736f6c63430008150033",
  "linkReferences": {},
  "deployedLinkReferences": {}
}